:100000000C9434000C943E000C943E000C943E0082
:100010000C943E000C943E000C943E000C943E0068
:100020000C943E000C943E000C943E000C943E0058
:100030000C943E000C943E000C943E000C943E0048
:100040000C943E000C943E000C943E000C943E0038
:100050000C943E000C943E000C943E000C943E0028
:100060000C943E000C943E0011241FBECFEFD8E04C
:10007000DEBFCDBF0E9440000C9464000C940000D1
:100080008FEF84B980E090E08730910574F425B15A
:10009000280F25B92FEF33ED40E321503040404089
:1000A000E1F700C000000196EFCF25B1281B25B96C
:1000B0002FEF33ED40E3215030404040E1F700C0E6
:0C00C0000000019791F7E0CFF894FFCF0B
:00000001FF
