:100000000C9434000C943E000C943E000C943E0082
:100010000C943E000C943E000C943E000C943E0068
:100020000C943E000C943E000C943E000C943E0058
:100030000C943E000C943E000C943E000C943E0048
:100040000C943E000C943E000C943E000C943E0038
:100050000C943E000C943E000C943E000C943E0028
:100060000C943E000C943E0011241FBECFEFD8E04C
:10007000DEBFCDBF0E9440000C9464000C940000D1
:10008000CF93DF9300D000D0CDB7DEB7259A2D9A5D
:100090001C821B828B819C818139954630F48B8137
:1000A0009C8101969C838B83F5CF85B115B81A820C
:1000B000198289819A818139954648F789819A8187
:0C00C00001969A838983F5CFF894FFCF56
:00000001FF
