S019000030322E54696D65725F4F465F50533235362E73726563E7
S11300000C9434000C9446000C9446000C94460066
S11300100C9446000C9446000C9446000C94460044
S11300200C9446000C9446000C9446000C94460034
S11300300C9446000C9446000C9454000C94460016
S11300400C9446000C9446000C9446000C94460014
S11300500C9446000C9446000C9446000C94460004
S11300600C9446000C94460011241FBECFEFD8E038
S1130070DEBFCDBF21E0A0E0B1E001C01D92A230FF
S1130080B207E1F70E9448000C9477000C9400003A
S113009080E284B982E084BD94E095BD9FEF97BD72
S11300A0789480936E00FFCF1F920F920FB60F9239
S11300B011248F939F9380910001909101010196E7
S11300C0893191052CF4909301018093000108C0BB
S11300D0109201011092000195B180E2892785B93F
S11300E09F918F910F900FBE0F901F901895F894C9
S10500F0FFCF3C
S9030000FC
