:100000000C9434000C943E000C943E000C943E0082
:100010000C943E000C943E000C943E000C943E0068
:100020000C943E000C943E000C943E000C943E0058
:100030000C943E000C943E000C943E000C943E0048
:100040000C943E000C943E000C943E000C943E0038
:100050000C943E000C943E000C943E000C943E0028
:100060000C943E000C943E0011241FBECFEFD8E04C
:10007000DEBFCDBF0E9440000C9461000C940000D4
:10008000519A5098589A1092C50085E08093C40008
:1000900088E18093C1008CE08093C20080EF3099AA
:1000A00004C09091C00095FFFCCF8093C6002FEF55
:1000B0003DEB9AE0215030409040E1F700C0000055
:0600C000EECFF894FFCF23
:00000001FF
