:100000000C9434000C943E000C943E000C943E0082
:100010000C943E000C943E000C943E000C943E0068
:100020000C943E000C943E000C943E000C943E0058
:100030000C943E000C943E000C943E000C943E0048
:100040000C943E000C943E000C943E000C943E0038
:100050000C943E000C943E000C943E000C943E0028
:100060000C943E000C943E0011241FBECFEFD8E04C
:10007000DEBFCDBF0E9440000C946B000C940000CA
:10008000259A249A2D9A2FEF83ED90E321508040FA
:100090009040E1F700C000002D982FEF83ED90E332
:1000A000215080409040E1F700C000002C9A2FEFD3
:1000B00083ED90E3215080409040E1F700C00000C4
:1000C0002C982FEF83ED90E3215080409040E1F792
:0A00D00000C00000D7CFF894FFCF66
:00000001FF
