S011000030342E54696D6572312E737265634F
S11300000C9434000C943E000C943E000C943E007E
S11300100C943E000C943E000C943E000C943E0064
S11300200C943E000C943E000C943E000C9454003E
S11300300C943E000C943E000C943E000C943E0044
S11300400C943E000C943E000C943E000C943E0034
S11300500C943E000C943E000C943E000C943E0024
S11300600C943E000C943E0011241FBECFEFD8E048
S1130070DEBFCDBF0E9440000C9466000C940000CB
S11300808FEF84B9E1E8F0E088E0808389E09DE3C4
S1130090909389008093880082E080936F00789425
S11300A0808185608083FFCF1F920F920FB60F92DD
S11300B011248F939F9395B180E2892785B99F91ED
S11300C08F910F900FBE0F901F901895F894FFCF4B
S9030000FC
