:100000000C9434000C943E000C943E000C943E0082
:100010000C943E000C943E000C943E000C943E0068
:100020000C943E000C943E000C943E000C943E0058
:100030000C943E000C943E000C943E000C943E0048
:100040000C943E000C943E000C943E000C943E0038
:100050000C943E000C943E000C943E000C943E0028
:100060000C943E000C943E0011241FBECFEFD8E04C
:10007000DEBFCDBF0E9440000C9463000C940000D2
:1000800080E094B1982B94B98F5F8F3FD1F780E0D7
:1000900095B1982B95B92FEF33ED90E32150304077
:1000A0009040E1F700C0000095B115B82FEF33ED97
:1000B00090E3215030409040E1F700C000008F5F96
:0A00C0008F3F31F7E4CFF894FFCF33
:00000001FF
