:100000000C9434000C943E000C943E000C943E0082
:100010000C943E000C943E000C943E000C943E0068
:100020000C943E000C943E000C943E000C943E0058
:100030000C943E000C943E000C943E000C943E0048
:100040000C943E000C943E000C943E000C943E0038
:100050000C943E000C943E000C943E000C943E0028
:100060000C943E000C943E0011241FBECFEFD8E04C
:10007000DEBFCDBF0E9440000C9459000C940000DC
:100080008FEF84B98AB18AB95A9A8BB186608BB9DD
:1000900099B1947089B18570813019F485B18A7FE6
:1000A00006C09111F5CF8111F3CF85B1856085B977
:0600B000EFCFF894FFCF32
:00000001FF
