:100000000C9434000C944B000C9440000C943E0073
:100010000C943E000C943E000C943E000C943E0068
:100020000C943E000C943E000C943E000C943E0058
:100030000C943E000C943E000C943E000C943E0048
:100040000C943E000C943E000C943E000C943E0038
:100050000C943E000C943E000C943E000C943E0028
:100060000C943E000C943E0011241FBECFEFD8E04C
:10007000DEBFCDBF0E9459000C9464000C940000B8
:100080001F920F920FB60F92112415B80F900FBE4A
:100090000F901F9018951F920F920FB60F92112478
:1000A0008F9380E285B98F910F900FBE0F901F90B4
:1000B000189580E284B91092690083E08DBB8CBBF7
:0C00C000109268007894FFCFF894FFCFF6
:00000001FF
