:100000000C9434000C9440000C943E000C943E0080
:100010000C943E000C943E000C943E000C943E0068
:100020000C943E000C943E000C943E000C943E0058
:100030000C943E000C943E000C943E000C943E0048
:100040000C943E000C943E000C943E000C943E0038
:100050000C943E000C943E000C943E000C943E0028
:100060000C943E000C943E0011241FBECFEFD8E04C
:10007000DEBFCDBF0E944F000C945A000C940000CC
:100080001F920F920FB60F9211248F9385B1809516
:1000900085B98F910F900FBE0F901F90189580E13A
:1000A00084B91092690083E08DBB8CBB109268000C
:0800B0007894FFCFF894FFCF14
:00000001FF
