:100000000C9434000C943E000C943E000C943E0082
:100010000C943E000C943E000C943E000C943E0068
:100020000C943E000C943E000C943E000C943E0058
:100030000C943E000C943E000C943E000C943E0048
:100040000C943E000C943E000C943E000C943E0038
:100050000C943E000C943E000C943E000C943E0028
:100060000C943E000C943E0011241FBECFEFD8E04C
:10007000DEBFCDBF0E9440000C946E000C940000C7
:1000800084B1806384B92D9A2FEF83ED90E32150E2
:1000900080409040E1F700C0000085B115B82FEF17
:1000A00083ED90E3215080409040E1F700C00000D4
:1000B0002C9A2FEF83ED90E3215080409040E1F7A0
:1000C00000C0000085B115B82FEF83ED90E32150FB
:1000D00080409040E1F700C00000D5CFF894FFCFFA
:00000001FF
