:100000000C9434000C9446000C9446000C9446006A
:100010000C9446000C9446000C9446000C94460048
:100020000C9446000C9446000C9446000C94460038
:100030000C9446000C9446000C9446000C94460028
:100040000C9455000C9446000C9446000C94460009
:100050000C9446000C9446000C9446000C94460008
:100060000C9446000C94460011241FBECFEFD8E03C
:10007000DEBFCDBF21E0A0E0B1E001C01D92A13004
:10008000B207E1F70E9466000C9479000C9400001E
:1000900084B5846084BD16BCEEE6F0E080818160AA
:1000A000808378941092000108951F920F920FB6EA
:1000B0000F9211248F93809100018F5F8093000134
:1000C0008F910F900FBE0F901F90189580E284B90A
:1000D0000E94480090E2809100018E3FE0F386B5D7
:1000E0008823C9F385B1892785B916BC1092000110
:0600F000F2CFF894FFCFEF
:00000001FF
