:100000000C9434000C943E000C943E000C94400080
:100010000C943E000C943E000C943E000C943E0068
:100020000C943E000C943E000C943E000C943E0058
:100030000C943E000C943E000C943E000C943E0048
:100040000C943E000C943E000C943E000C943E0038
:100050000C943E000C943E000C943E000C943E0028
:100060000C943E000C943E0011241FBECFEFD8E04C
:10007000DEBFCDBF0E944F000C945E000C940000C8
:100080001F920F920FB60F9211248F938BB1809510
:100090008BB98F910F900FBE0F901F9018952098DD
:1000A0008FEF8AB9809168008160809368008091A9
:1000B0006B00816080936B007894FFCFF894FFCF42
:00000001FF
